:100000000C949B110C94B8110C94B8110C94B81169
:100010000C94B8110C94B8110C94B8110C94B8113C
:100020000C94B8110C94B8110C94B8110C94B8112C
:100030000C94B8110C94B3170C948E180C94B8113E
:100040000C94B8110C94B8110C94B8110C94B8110C
:100050000C94B8110C94B8110C94B8110C94B811FC
:100060000C94B8110C94B8110C94B8110C94B811EC
:100070000C94B8110C94B8110C94B8110100010043
:100080000100010001000100010001000100010068
:100090000100010001000100010001000100010058
:1000A0000100010001000100010001000100010048
:1000B0000100010001000100010001000100010038
:1000C0000100010001000100010001000100010028
:1000D0000100010001000100010001000100010018
:1000E0000100010001000100010001000100010008
:1000F00001000100010001000100010001000100F8
:1001000001000100010001000100010001000100E7
:1001100001000100010001000100010001000100D7
:1001200001000100010001000100010001000100C7
:1001300001000100010001000100010001000100B7
:1001400001000100010001000100010001000100A7
:100150000100010001000100010001000100010097
:100160000100010001000100010001000000000089
:10017000000000000000000000000100010001007C
:100180000100010001000100010001000100010067
:100190000100010001000100010001000100010057
:1001A0000100010001000100010001000100010047
:1001B0000100010001000100010001000100010037
:1001C0000100010001000100010001000100010027
:1001D0000100010001000100010001000100010017
:1001E0000100010001000100010001000100010007
:1001F00001000100010001000100010001000100F7
:1002000001000100010001000100010001000100E6
:1002100001000100010001000100010001000100D6
:1002200001000100010001000100010001000100C6
:1002300001000100010001000100010001000100B6
:1002400001000100010000000000000000000000AB
:10025000000000000000000000000000000000009E
:10026000000000000000000000000000010001008C
:100270000100010001000100010001000100010076
:100280000100010001000100010001000100010066
:100290000100010001000100010001000100010056
:1002A0000100010001000100010001000100010046
:1002B0000100010001000100010001000100010036
:1002C0000100010001000100010001000100010026
:1002D0000100010001000100010001000100010016
:1002E0000100010001000100010001000100010006
:1002F00001000100010001000100010001000100F6
:1003000001000100010001000100010001000100E5
:1003100001000100010001000100010001000000D6
:1003200000000000000000000000000000000000CD
:1003300000000000000000000000000000000000BD
:1003400000000000000000000000000000000000AD
:100350000000000000000100010001000100010098
:100360000100010001000100010001000100010085
:100370000100010000000000010001000100010077
:100380000100010001000100010001000100010065
:100390000100010001000100010001000100010055
:1003A0000100010001000100010001000100010045
:1003B0000100010001000100010001000100010035
:1003C0000100010001000100010001000100010025
:1003D0000100010001000100010001000100010015
:1003E0000100010001000100010001000100010005
:1003F00001000100010001000100010001000000F6
:1004000000000000000000000000000000000000EC
:1004100000000000000000000000000000000000DC
:1004200000000000000000000000000000000000CC
:1004300000000000000000000000000000000000BC
:1004400000000100010001000100010001000100A5
:100450000100010001000100010001000100010094
:100460000100010000000000000000000100010088
:100470000100010000000100010001000100010075
:100480000100010001000100010001000100010064
:100490000100010001000100010001000100010054
:1004A0000100010001000100010001000100010044
:1004B000010000000000000000000000000000003B
:1004C000000000000000000000000000000000002C
:1004D000000000000000000000000000000000001C
:1004E000000000000000000000000000000000000C
:1004F00000000000000000000000000000000000FC
:1005000000000000000000000000000000000000EB
:1005100000000000000000000000000000000000DB
:1005200000000000000000000000000000000000CB
:1005300000000100010001000100010001000100B4
:1005400001000100010001000100010000000000A5
:100550000000000000000000000000000100010099
:100560000100010001000100010001000100010083
:100570000000010001000100010001000100000075
:10058000000000000000000000000000000000006B
:10059000000000000000000000000000000000005B
:1005A000000000000000000000000000000000004B
:1005B000000000000000000000000000000000003B
:1005C000000000000000000000000000000000002B
:1005D000000000000000000000000000000000001B
:1005E000000000000000000000000000000000000B
:1005F00000000000000000000000000000000000FB
:1006000000000000000000000000000000000000EA
:1006100001000100010001000100010001000100D2
:1006200001000100010001000100010001000100C2
:1006300001000100010001000100010001000100B2
:1006400001000100000000000000000000000000A8
:10065000000000000000000000000000000000009A
:10066000000000000000000000000000000000008A
:10067000000000000000000000000000000000007A
:10068000000000000000000000000000000000006A
:10069000000000000000000000000000000000005A
:1006A000000000000000000000000000000000004A
:1006B000000000000000000000000000000000003A
:1006C000000000000000000000000000000000002A
:1006D000000000000000000000000000000000001A
:1006E000000000000000000000000000000000000A
:1006F00000000000010001000100010001000100F4
:1007000001000100010001000100010001000100E1
:1007100001000100010001000100010001000100D1
:1007200001000100010001000100010001000100C1
:1007300001000100010001000100010001000100B1
:1007400001000100010001000100000000000000A4
:100750000000000000000000000000000000000099
:1007600000000000000000000000000000008A17E8
:10077000A417BE17D717F1170B1824183E185718CF
:1007800071188A18A318BC18D618EF18081921195F
:100790003A1952196B1984199D19B619CE19E7190E
:1007A000FF19181A301A491A611A791A921AAA1AD4
:1007B000C21ADA1AF21A0A1B231B3B1B531B6A1BB1
:1007C000821B9A1BB21BCA1BE21BF91B111C291CA2
:1007D000401C581C6F1C871C9F1CB61CCD1CE51CA4
:1007E000FC1C141D2B1D421D5A1D711D881D9F1DB3
:1007F000B71DCE1DE51DFC1D131E2A1E411E581ED1
:100800006F1E861E9D1EB41ECB1EE21EF91E101FFB
:10081000271F3E1F541F6B1F821F991FB01FC61F2B
:10082000DD1FF41F0B20212038204F2065207C2065
:100830009320A920C020D720ED2004211A213121A6
:1008400048215E2175218B21A221B821CF21E621EB
:10085000FC2113222922402256226D2283220005E8
:10086000960421049F030703490221017D171D23DC
:100870008A17122397170623A417FB22B117F02219
:10088000BE17E522CB17DA22D817CF22E517C422EC
:10089000F217B922FF17AE220C18A3221A189822B9
:1008A00027188D2234188222411877224E186C2284
:1008B0005B1861226818562276184B228318412251
:1008C000901836229D182B22AA182022B81816221A
:1008D000C5180B22D2180022DF18F621ED18EB21E3
:1008E000FA18E1210719D6211519CC212219C121A5
:1008F0003019B7213D19AC214A19A2215819982164
:1009000065198D2173198321801979218E196E2122
:100910009B196421A9195A21B7195021C4194621DC
:10092000D2193C21E0193221ED192821FB191E2191
:10093000091A1421171A0A21251A0121331AF7203E
:10094000411AED204F1AE3205D1ADA206B1AD020ED
:10095000791AC720871ABD20951AB420A31AAB2094
:10096000B21AA120C01A9820CF1A8F20DD1A862033
:10097000EC1A7D20FA1A7420091B6B20181B6220C8
:10098000261B5A20351B5120441B4920531B402055
:10099000621B3820721B2F20811B2720901B1F20D9
:1009A000A01B1720AF1B1020BF1B0820CF1B00204F
:1009B000DF1BF91FEF1BF21FFF1BEA1F101CE31FB9
:1009C000201CDD1F311CD61F421CD01F531CC91F09
:1009D000651CC31F761CBE1F881CB81F9A1CB31F42
:1009E000AC1CAE1FBF1CA91FD21CA51FE51CA11F5C
:1009F000F91C9D1F0D1D9A1F211D971F361D941F49
:100A00004C1D931F7B0349217E03602181037721C5
:100A100083038E218503A5218703BC218803D3216D
:100A20008903E921890300228903162289032D22E3
:100A30008903432288035A22860370228403862274
:100A400082039C228003B3227D03C9227A03DF2222
:100A5000BC03EC053D034105BA0289042E02BB0329
:100A60008E01C302B50055017917541F631F831708
:100A70004D1F6B1F8C17461F721F9517401F7A1F43
:100A80009F17391F821FA817321F8A1FB1172B1FEC
:100A9000921FBB17251F9A1FC4171E1FA11FCD171A
:100AA000171FA91FD717111FB11FE0170A1FB91F62
:100AB000EA17041FC11FF317FD1EC81FFD17F61EFE
:100AC000D01F0618F01ED81F1018E91EE01F1A18B4
:100AD000E31EE81F2318DD1EEF1F2D18D61EF71F7B
:100AE0003718D01EFF1F4018C91E07204A18C31E02
:100AF0000F205418BD1E16205D18B71E1E20671843
:100B0000B01E26207118AA1E2E207B18A41E352088
:100B100085189E1E3D208F18981E45209918921EFC
:100B20004D20A3188B1E5420AD18851E5C20B718CD
:100B30007F1E6420C1187A1E6C20CB18741E74208E
:100B4000D5186E1E7B20DF18681E8320E918621EF0
:100B50008B20F3185C1E9320FE18571E9A2008194C
:100B6000511EA22012194B1EAA201D19461EB1208B
:100B70002719401EB92032193B1EC1203C19351ED1
:100B8000C9204719301ED02052192B1ED8205C19BD
:100B9000261EE0206719201EE82072191B1EEF2078
:100BA0007D19161EF7208819111EFF2093190C1E9F
:100BB00006219E19071E0E21A919021E1621B4191D
:100BC000FE1D1E21BF19F91D2521CB19F41D2D2154
:100BD000D619F01D3521E119EB1D3C21ED19E71D5A
:100BE0004421F919E31D4C21041ADF1D5321101A69
:100BF000DA1D5B211C1AD61D6321281AD31D6B2117
:100C0000341ACF1D7221401ACB1D7A214D1AC81DEE
:100C10008221591AC41D8921661AC11D9121731A96
:100C2000BE1D99217F1ABA1DA0218C1AB81DA821BA
:100C30009A1AB51DB021A71AB21DB721B41AB01D5A
:100C4000BF21C21AAD1DC621D01AAB1DCE21DE1A9E
:100C5000A91DD621EC1AA81DDD217B02471C0C2002
:100C600084025B1C07208C026E1C02209502821CF1
:100C7000FE1F9D02961CF91FA502AB1CF61FAE02BB
:100C8000C01CF21FB602D51CEF1FBE02EA1CEC1FEF
:100C9000C602001DEA1FCE02171DE81FD7022E1D37
:100CA000E61FDF02451DE51FE7025D1DE51FEF02A0
:100CB000751DE51FF6028F1DE61FFE02A81DE71F2A
:100CC0000603C31DEA1F0D03DE1DED1F1503FB1DEB
:100CD000F11F1C03181EF61F2303361EFC1F2A03D8
:100CE000551E03203103761E0B203803981E152055
:100CF0003F03BC1E21204503E11E2E204B03081F8D
:100D00003E202103300530222403320547222703E9
:100D100034055E222903340574222A0334058A220D
:100D20002B033305A0222B033105B7222A032F05FD
:100D3000CC2229032B05E22227032705F8222403CE
:100D400021050E2321031B052323BA02890428232E
:100D50002E02BB0328238E01C30228237900FE0044
:100D60006D01CA07A90F6717471F7F17651D7B1DF8
:100D70001D238617611D811D18238E175C1D881D7C
:100D800012239617581D8E1D0D239D17531D941D5C
:100D90000723A5174F1D9A1D0223AC174A1DA11D3D
:100DA000FC22B417461DA71DF722BC17411DAD1D1F
:100DB000F122C3173D1DB41DEC22CB17381DBA1DFF
:100DC000E622D317341DC01DE122DB17301DC61DDE
:100DD000DC22E2172B1DCD1DD622EA17271DD31DBD
:100DE000D122F217231DD91DCB22FA171F1DE01D9A
:100DF000C62202181A1DE61DC1220A18161DEC1D76
:100E0000BB221218121DF31DB6221A180E1DF91D51
:100E1000B12222180A1DFF1DAB222A18061D061E2C
:100E2000A6223218021D0C1EA1223A18FE1C121E08
:100E30009B224218FA1C191E96224A18F61C1F1EE5
:100E400091225218F21C261E8C225A18EE1C2C1EBF
:100E500086226318EA1C321E81226B18E61C391E9A
:100E60007C227318E31C3F1E77227C18DF1C461E71
:100E700071228418DB1C4C1E6C228D18D81C531E4A
:100E800067229518D41C591E62229E18D11C601E20
:100E90005D22A618CD1C661E5822AF18CA1C6D1EF6
:100EA0005222B818C61C731E4D22C018C31C7A1ECD
:100EB0004822C918C01C801E4322D218BC1C871EA1
:100EC0003E22DB18B91C8D1E3922E418B61C941E74
:100ED0003422ED18B31C9B1E2F22F618B01CA11E45
:100EE0002A22FF18AD1CA81E25220819AA1CAF1E15
:100EF00020221119A71CB51E1B221B19A51CBC1EE4
:100F000016222419A21CC31E11222E199F1CC91EB1
:100F10000C2237199D1CD01E082241199A1CD71E7D
:100F200003224A19981CDE1EFE215419961CE51E48
:100F3000F9215E19931CEB1EF4216819911CF21E15
:100F4000F02172198F1CF91EEB217C198D1C001FDA
:100F5000E62186198B1C071FE22190198A1C0E1F9F
:100F6000DD219B19881C151FD821A519861C1C1F63
:100F7000D421B019851C231FCF21BB19841C2A1F23
:100F8000CB21E5015C1AE61D7921ED016A1AE41D09
:100F90008121F601781AE21D8921FE01871AE01DE0
:100FA00091210602951ADE1D99210E02A41ADC1D5C
:100FB000A1211602B31ADA1DA8211F02C21AD91DD7
:100FC000B0212702D11AD81DB8212F02E11AD71D4E
:100FD000C0213802F11AD71DC8214002011BD61DBD
:100FE000D0214902121BD61DD8215102231BD71D27
:100FF000E0215A02341BD71DE8216202451BD81D8F
:10100000F0216A02571BD91DF8217302691BDB1DF1
:10101000FF217C027C1BDD1D072284028F1BDF1D4C
:101020000F228D02A21BE21D17229502B61BE51DA1
:101030001F229E02CA1BE91D2722A602DF1BED1DEF
:101040002F22AF02F41BF21D3722B7020A1CF71D34
:101050003F22C002211CFD1D4622C802381C041E6E
:101060004E22D102501C0B1E5622D902691C141E9E
:101070005E22E202831C1D1E6622EA029D1C271EC0
:101080006E22F202B91C311E7622FA02D51C3D1ED8
:101090007D2279024804261E0C2084025704461E35
:1010A00013208E026604671E1B20990275048A1E97
:1010B0002520A4028304AE1E3120AF029204D41E68
:1010C0003E20BA02A104FC1E4D20C502AF04261F1B
:1010D0005E20D002BD04521F7220DA02CB04811FB1
:1010E0008820E502D804B31FA220EF02E504E91F1F
:1010F000BF20F902F1042220E0200203FC0460205A
:1011000006210A030705A420322112030F05EE2051
:101110006421190317053F219E21F801D1043306EC
:10112000F022F701CE042E060523F401CA04270697
:101130001B23DC018304D60528236B018D025F0489
:101140004505240117027D034704D3008B0180026B
:101150002003B5005501BD02BD02D8059C116A17D8
:10116000511D22237D173D1C4E1CD920EA208317D8
:101170003A1C541CD520EF208A17371C591CD1204B
:10118000F4209017341C5F1CCD20F9209717301CD9
:10119000641CC920FD209D172D1C691CC52002213F
:1011A000A4172A1C6F1CC1200721AB17271C741C15
:1011B000BD200B21B117241C7A1CB9201021B817AF
:1011C000211C7F1CB5201521BE171E1C841CB120BC
:1011D0001921C5171B1C8A1CAD201E21CC17181CF9
:1011E0008F1CA9202321D317151C951CA52027216E
:1011F000D917121C9A1CA1202C21E0170F1CA01C2F
:101200009D203121E7170C1CA51C99203521EE17D4
:10121000091CAB1C95203A21F517061CB01C922026
:101220003F21FC17041CB61C8E2043210318011C0F
:10123000BB1C8A2048210A18FE1BC11C86204D2198
:101240001118FB1BC61C822051211818F91BCC1C3D
:101250007E2056211F18F61BD21C7B205B212618EE
:10126000F31BD71C77205F212D18F11BDD1C732089
:1012700064213418EE1BE21C6F2068213C18EC1B23
:10128000E81C6C206D214318E91BEE1C68207221BC
:1012900058057E12A916F81D732253058612A3164F
:1012A000FE1D6E224F058E129D16031E68224A05F2
:1012B00096129816081E622245059D1292160D1E62
:1012C0005D224005A5128C16131E57223C05AD1257
:1012D0008716181E51223705B51281161D1E4C2285
:1012E0003205BD127B16221E46222D05C41276162B
:1012F000281E40222805CC1270162D1E3A222305E6
:10130000D4126B16321E35221E05DC126516371EEE
:101310002F221905E41260163D1E29221405EC1235
:101320005B16421E23220F05F4125516471E1E227D
:101330000905FC1250164C1E1822040505134B1605
:10134000511E1222FF040D134616571E0C22F904DB
:10135000151341165C1E0722F4041D133C16611E72
:101360000122EF0426133716661EFB21E9042E1313
:1013700032166C1EF521E40436132D16711EF02171
:10138000DE043F132816761EEA21D90447132316DC
:101390007B1EE421D30450131E16801EDE21CD04D3
:1013A00058131A16861ED821C804611315168B1EF1
:1013B000D221C20469131016901ECD21BC047213F1
:1013C0000C16951EC721B6047B1308169A1EC12160
:1013D000B00484130316A01EBB21AB048C13FF15AD
:1013E000A51EB521A5049513FB15AA1EAF219F04C8
:1013F0009E13F715AF1EAA219904A713F315B51E66
:10140000A4219304B013EF15BA1E9E218C04B913C6
:10141000EB15BF1E98218604C213E715C41E922146
:101420008004CC13E315CA1E8C217A04D513DF1572
:10143000CF1E86217404DE13DC15D41E81216D04B9
:10144000E813D815DA1E7B216704F113D515DF1ECA
:1014500075216104FA13D215E41E6F215B04041494
:10146000CE15EA1E692154040E14CB15EF1E63211C
:101470004E041714C815F51E5D2147042114C51527
:10148000FA1E582141042B14C315001F52213A049F
:101490003514C015051F4C2134043F14BD150B1F16
:1014A00046212D044914BB15111F40212704531454
:1014B000B815161F3B2120045D14B6151C1F3521DD
:1014C0001A046714B415221F2F2113047214B215C5
:1014D000281F29210C047C14B0152E1F242106047A
:1014E0008714AE15341F1E21FF039114AC153A1F4B
:1014F0001921F8039C14AB15401F1321F203A71404
:10150000A915461F0E21EB03B214A8154C1F082184
:10151000EC047B06EA194D1B15222502CD03701C35
:10152000221E5A222F02DC038B1C2C1E622239023F
:10153000EB03A61C371E6A224402FA03C31C431E97
:1015400072224F020A04E21C511E7A225A021A0425
:10155000011D5F1E822265022904221D6F1E8A2240
:1015600070023904441D801E92227B024904681DCA
:10157000931E9A22870259048E1DA81EA22293024E
:101580006904B61DBF1EAA229E027904E01DD81E62
:10159000B222BD010B045F05181F6020C3011E04A9
:1015A0007405451F7420C90132048905741F8A20FF
:1015B000D00145049E05A61FA320D5015804B305FC
:1015C000DC1FBF20DB016A04C7051520E020E10114
:1015D0007D04DB0552200421E6018E04ED059520F3
:1015E0002E21DE014B03DD05EC06B622DF014B03A5
:1015F000DF05ED06CC22DE014903DF05EC06E22221
:10160000DD014703DE05E906F822DC014403DB05C2
:10161000E3060D23DA014003D505DC062223AC01E5
:10162000F6023605310628236B018D025F0445055D
:101630002823240117027D0347042823D3008B01AC
:101640008002200328237900FE006D01BB21BB210D
:101650007617761B7D1B541F5C1F24237B17761B7C
:10166000841B541F631F21238117741B891B521F66
:10167000671F1D238717721B8E1B4F1F6C1F19239B
:101680008D176F1B931B4C1F701F162393176D1B19
:10169000981B491F741F1223B204D7124B17521CF8
:1016A000BD20FB20B004DC124617571CB920FF20D8
:1016B000AE04E21241175C1CB4200421AC04E71212
:1016C0003C17611CB0200821AA04ED123717661CD4
:1016D000AC200D21A804F31231176A1CA820112197
:1016E000A504F8122C176F1CA3201621A304FE12C8
:1016F0002717741C9F201A21A10404132217791C98
:101700009B201F219F040A131D177E1C9720242154
:101710009C040F131817831C922028219A04151378
:101720001217871C8E202D2198041B130D178C1C5B
:101730008A203121960421130817911C8520362117
:10174000930426130317961C81203A2191042C132D
:10175000FE169B1C7D203F218E043213F9169F1C20
:10176000792043218C043813F416A41C74204821DA
:101770008A043E13EF16A91C70204C2187044313E2
:10178000EA16AE1C6C20502185044913E516B31CE3
:101790006820552182044F13E016B81C642059219B
:1017A00080045513DB16BC1C5F205E217D045B1397
:1017B000D616C11C5B2062217B046113D116C61CA6
:1017C0005720672178046713CC16CB1C53206B215C
:1017D00076046D13C716D01C4E207021730473134A
:1017E000C216D41C4A20742170047913BE16D91C69
:1017F000462079216E047F13B916DE1C42207D211C
:101800006B048513B416E31C3E20822168048B13FD
:10181000AF16E81C3920862166049113AA16ED1C28
:1018200035208B2163049713A616F11C31208F21DC
:1018300060049D13A116F61C2D2094215D04A313B2
:101840009C16FB1C292098215A04A9139716001DE9
:1018500025209D215704B0139316051D2020A1219A
:101860005504B6138E160A1D1C20A6215204BC1363
:1018700089160F1D1820AA214F04C2138516141DA6
:101880001420AE214C04C8138016181D1020B3215B
:101890004904CF137C161D1D0C20B7214604D51317
:1018A0007716221D0820BC214304DB137316271D65
:1018B0000420C0214004E2136E162C1D0020C52117
:1018C0003D04E8136A16311DFB1FC9213A04EE13CB
:1018D0006616361DF71FCE213604F51361163B1D23
:1018E000F31FD2213304FB135D16401DEF1FD721D8
:1018F000300402145916451DEB1FDB212D0408147A
:1019000054164A1DE71FE0212A040F1450164F1DDC
:10191000E31FE421260415144C16541DDF1FE92192
:1019200023041C144816591DDB1FED21200422142A
:1019300044165E1DD71FF2211C0429144016631D96
:10194000D31FF621190430143B16681DCF1FFA214E
:101950001604361437166D1DCC1FFF2112043D14DA
:101960003416721DC81F03220F0444143016781D4C
:10197000C41F08220B044B142C167D1DC01F0C2203
:10198000080452142816821DBC1F11220404581486
:101990002416871DB81F152201045F1420168C1D04
:1019A000B51F1A22FD0366141D16921DB11F1E22BB
:1019B000FA036D141916971DAD1F2322F603741434
:1019C00016169D1DAA1F2722F2037B141216A21DB4
:1019D000A61F2C22EF0382140F16A71DA21F302270
:1019E000EB0389140B16AD1D9F1F3522E7039114DD
:1019F0000816B31D9B1F3922E40398140516B81D61
:101A0000981F3E228204CA053619081B4C1F8321E9
:101A10007A04C6053A19FE1A521F7E217104C305C5
:101A20003C19F41A591F79216904BF053F19E91AB5
:101A30005F1F74216004BB054219DE1A651F6F2108
:101A40005704B7054419D41A6C1F6B214E04B30513
:101A50004619C91A721F66214404AF054819BD1AF8
:101A6000791F61213B04AA054A19B21A7F1F5D2123
:101A70003104A6054B19A61A861F58212804A10572
:101A80004D199A1A8C1F54211E049C054E198E1A4A
:101A9000931F4F21140497054E19821A9A1F4B2148
:101AA000090492054F19761AA01F4621FF038D05E0
:101AB0004F19691AA71F4221F50388054F195C1AAF
:101AC000AE1F3E21EA0382054F194E1AB51F3A2177
:101AD000DF037D054E19411ABD1F3621D40377055A
:101AE0004D19331AC41F3221C90371054C19251A27
:101AF000CC1F2E21BE036B054A19171AD41F2B21A8
:101B0000B30365054819081ADC1F2721A8035F05E0
:101B10004619F919E41F24219D0359054319EA19AF
:101B2000ED1F2221920353054019DB19F51F1F21D8
:101B300086034D053D19CB19FF1F1D210802EB053A
:101B40001407381B101C81220A02DA0507073E1B06
:101B5000051C87220B02C905F906431BF91B8E22BF
:101B60000C02B605EA06471BEC1B9422BA010604D8
:101B700057055F1E2E1FC522C1011B046E05951E51
:101B8000531FCD22C80130048605CF1E7C1FD522ED
:101B9000CF0145049D050E1FA91FDD22D501590463
:101BA000B405511FDC1FE522DC016E04CA059B1F32
:101BB0001420ED22E2018204DF05EB1F5420F52200
:101BC000E7019404F30544209B20FD22EC01A504C9
:101BD0000506A520EC200523F001B404140612210B
:101BE00049210D23F301C0041F068C21B3211523C5
:101BF000F401C704260617222F221C23F401C9046E
:101C00002606B722C0222423DC018304D605BB228A
:101C1000BB2228239C01CB03FE04BB22BB2228232A
:101C2000540107031304BB22BB222823FC002B0210
:101C3000FE02BB22BB2228237900FE006D01222375
:101C400022232823120462136B17871B5B1F621F5A
:101C500024231304641367178E1B591F681F212345
:101C6000120469136217921B561F6C1F1D23120466
:101C70006D135E17971B531F701F192311047213E6
:101C800059179C1B501F741F1623100476135517E9
:101C9000A01B4D1F781F12230F047B135017A51B89
:101CA0004A1F7C1F0F230E047F134C17A91B471FCD
:101CB000801F0B230D0484134717AE1B431F841F83
:101CC00007230D0488134317B31B401F881F0423E9
:101CD0000C048D133E17B71B3D1F8C1F00230B04F4
:101CE00091133A17BC1B3A1F901FFD220A0496134A
:101CF0003517C01B371F941FF92209049A13311797
:101D0000C51B341F981FF52208049F132C17CA1BEC
:101D1000311F9C1FF2220704A3132817CE1B2E1F6E
:101D2000A01FEE220604A8132317D31B2B1FA41FEA
:101D3000EB220504AD131F17D81B281FA81FE7228D
:101D40000404B1131A17DC1B251FAC1FE422030483
:101D5000B6131617E11B221FB01FE0220204BA13AC
:101D60001117E51B1E1FB41FDD220104BF130D1741
:101D7000EA1B1B1FB91FD9220004C4130917EF1B4C
:101D8000181FBD1FD522FF03C8130417F31B151F0F
:101D9000C11FD222FE03CD130017F81B121FC51F4F
:101DA000CE22FD03D213FB16FD1B0F1FC91FCB2232
:101DB000FC03D613F716021C0D1FCD1FC722FB0311
:101DC000DB13F216061C0A1FD11FC422FA03E0130C
:101DD000EE160B1C071FD51FC022F903E413E916EA
:101DE000101C041FD91FBD22F803E913E516141CAB
:101DF000011FDD1FB922F603EE13E116191CFE1EAA
:101E0000E11FB622F503F213DC161E1CFB1EE51FB4
:101E1000B222F403F713D816231CF81EE91FAF22D1
:101E2000F303FC13D316271CF51EED1FAB22F203A0
:101E30000114CF162C1CF21EF11FA822F003061469
:101E4000CB16311CF01EF51FA422EF030A14C61690
:101E5000361CED1EF91FA122EE030F14C2163B1C07
:101E6000EA1EFD1F9D22ED031414BE163F1CE71E43
:101E700001209A22EB031914B916441CE41E052014
:101E80009622EA031E14B516491CE21E092093226D
:101E9000E9032214B1164E1CDF1E0D208F22E7032A
:101EA0002714AC16531CDC1E11208C22E6032C14C4
:101EB000A816581CD91E15208822E4033114A41634
:101EC0005D1CD71E1A208522E3033614A016621C5F
:101ED000D41E1E208222E1033B149B16661CD11ED9
:101EE00022207E22E003401497166B1CCF1E262072
:101EF0007B22DF0345149316701CCC1E2A20772208
:101F0000DD034A148F16751CC91E2E207422DC03B3
:101F10004F148A167A1CC71E32207122DA03541419
:101F200086167F1CC41E36206D22D80359148216D3
:101F3000841CC21E3A206A22D7035E147E168A1CB5
:101F4000BF1E3E206622D50363147A168F1CBD1E69
:101F500042206322D40368147616941CBA1E4720CC
:101F60006022D2036D147216991CB81E4B205C229D
:101F7000D00373146E169E1CB61E4F205922CF0339
:101F800078146A16A31CB31E53205622CD037D1469
:101F90006616A91CB11E57205222CB03821462166A
:101FA000AE1CAF1E5B204F22C90387145E16B31C04
:101FB000AC1E5F204C22C8038D145A16B81CAA1EF2
:101FC00064204922C60392145616BE1CA81E68201F
:101FD0004522C40397145216C31CA61E6C2042222D
:101FE000C2039C144E16C91CA41E70203F22C003BD
:101FF000A2144A16CE1CA21E74203C2215042E05E3
:10200000C718C01ACF1DEA1F1F2211042F05CB18B5
:10201000B91AD61DE81F24220D043005CF18B21AB4
:10202000DC1DE51F292209043005D318AC1AE31D75
:10203000E31F2D2204043005D718A51AEA1DE01F5E
:10204000322200043105DA189E1AF11DDE1F3622F5
:10205000FC033105DE18971AF81DDB1F3B22F7033E
:102060003105E218901AFE1DD91F3F22F2033105F7
:10207000E518881A051ED71F4422EE033105E9181A
:10208000811A0C1ED51F4822E9033105EC187A1A73
:10209000141ED31F4D22E4033105EF18721A1B1EC4
:1020A000D11F5122DF033105F2186A1A221ECF1FF9
:1020B0005622DA033005F518631A291ECD1F5A225D
:1020C000D4033005F8185B1A311ECB1F5F22CF03F3
:1020D0002F05FB18531A381ECA1F6322CA032F0587
:1020E000FE184B1A3F1EC81F6822C4032E05001994
:1020F000421A471EC71F6C22BF032D0503193A1A47
:102100004F1EC51F7122B9032C050519321A571E1F
:10211000C41F7522B3032C050719291A5F1EC31F9C
:102120007A22AD032B050919201A671EC21F7E22D1
:10213000A70329050B19171A6F1EC11F8322A103BC
:1021400028050C190E1A771EC01F87229B0327052E
:102150000E19051A801EC01F8C22950135055806E0
:102160001F1A5E1B072076219A0134055906291A89
:102170005B1B112074219F0132055906331A581B2D
:102180001A207221A501300559063D1A551B23203E
:102190007021AA012D055806471A511B2D206E21CA
:1021A000AF012B055806511A4E1B36206D21B40184
:1021B000280557065B1A4B1B40206B21B9012505EA
:1021C0005606651A481B4A206A21BE01220555069B
:1021D0006F1A441B53206921C3011E055306791A47
:1021E000411B5D206821C8011A055106831A3D1B59
:1021F00067206721CC0116054F068C1A391B712008
:102200006621D00110054C06961A351B7B206621ED
:10221000D4010B0549069F1A311B85206521D80181
:1022200004054506A81A2C1B90206521DC01FD043D
:102230004106B11A261B9A206521DF01F6043C06EF
:10224000B91A201BA4206521E201ED043606C01A4C
:102250001A1BAF206621E401E4043006C71A131BE1
:10226000BA206721E701DA042906CD1A0B1BC52025
:102270006821E801CF042206D21A021BD1206A216C
:10228000EA01C3041A06D71AF91ADD206C21EB0102
:10229000B7041206DB1AEE1AEA206F21EC01AA0439
:1022A0000906DD1AE31AF7207221EE01AD040D06CE
:1022B000E01AE01A2D219621EF01B2041206D9206E
:1022C000032154227D22F201BF041E0660217D21DC
:1022D0008522A322F401C6042506F9210B22BD2282
:1022E000CF22F401C904260603220322CF22DD22D5
:1022F000DC018304D60503220322D622D6229C01C8
:10230000CB03FE042423242328232823540107037A
:102310001304E522E52228232823FC002B02FE02D9
:10232000E522E522282328233101B5005501E322C7
:10233000E3222223222311241FBECFEFCDBFDFE7EC
:10234000DEBF14E7A0E0B4E7E6EBF8E302C00590D7
:102350000D92A830B107D9F72EE7A8E0B4E701C085
:102360001D92A03AB207E1F70E9452190C94591C31
:102370000C940000CF92DF92EF92FF920F931F9385
:10238000CF93DF936B017C018901D42FC52F0E946D
:102390008F1A87FF03C08601DE2DCF2DB8018D2F48
:1023A0009C2FDF91CF911F910F91FF90EF90DF90C5
:1023B000CF900895CF92DF92EF92FF92FC0120819F
:1023C000318142815381FB01C080D180E280F38062
:1023D000FC01C082D182E282F382FB01208331833F
:1023E00042835383FF90EF90DF90CF9008954F92F8
:1023F0005F926F927F928F929F92AF92BF92CF9295
:10240000DF92EF92FF920F931F93CF93DF93209170
:102410000674309107744CE0429F2001439F500C9A
:10242000112426E0420E511CC20169E070E00E94B6
:10243000D81901E010E06017710784F41016110636
:102440000CF05AC02CEF20033001219F700C112496
:1024500088E6A82E8AE7B82E68013AC0C801880F1E
:10246000991F800F911F8C010F5F1F4FE4CF801ABF
:10247000910ABE01C7010E94DA11BE0168597E4F60
:10248000C70188599E4F0E94DA11BE0160537D4FEB
:10249000C70180539D4F0E94DA11E60CF71CC60D50
:1024A000D71D8016910674F0F70180819181A28179
:1024B000B381488159816A817B81481759076A072E
:1024C0007B07A8F2FFEFCF1ADF0A24E0A20EB11CAF
:1024D000C414D50454F4E601CC0FDD1FCC0FDD1F6E
:1024E000C859D54875014601DCCFC80163E070E0EA
:1024F0000E94D8198B01A2CFDF91CF911F910F912C
:10250000FF90EF90DF90CF90BF90AF909F908F9013
:102510007F906F905F904F9008952F923F924F92CF
:102520005F926F927F928F929F92AF92BF92CF9263
:10253000DF92EF92FF920F931F93CF93DF93CDB76C
:10254000DEB76897CDBFDEBF8C017B014B835C8318
:1025500020910674309107742F833887209100747E
:1025600030910174409102745091037460E876E9EF
:1025700088E19AE40E94941A2B013C01609308744C
:102580005092097480930A7470920B744F8158852D
:10259000440F551F4B8B5C8B8B819C81880F991F3F
:1025A000D701A80FB91FA983BA83EF81F885EE0F71
:1025B000FF1FEE0FFF1FED87FE872F813885B3E0E9
:1025C000220F331FBA95E1F72F87388BAB81BC817F
:1025D000A49FC001A59F900DB49F900D1124F801F8
:1025E000E80FF91FEB87FC8728E63AE729873A8747
:1025F0008F81988582959295907F9827807F9827E4
:10260000AC01485955481A018F81988500E2909F86
:10261000902D809F802D91291124DC01A859B54867
:102620005D0149018F011B821C82B201C3010E941E
:10263000061B6B017C018B819C81AF81B8858A1759
:102640009B070CF45EC11D01B7FF02C0212C312C89
:102650002F8A388EC101880F991F880F991FFC019E
:10266000E859F548EB83FC832D853E85220D331D0B
:102670002D8B3E8BC901880F991F880F991FAC01C4
:10268000485955484D835E838F859889820D931DE7
:10269000880F991F880F991FDC01A859B5485D0163
:1026A000810141018114910409F0D3C1A101440FBA
:1026B000551F498B5A8BC101F3E0880F991FFA957A
:1026C000E1F7DC01A859B548AB83BC838B899C89B1
:1026D000820D931DA3E0880F991FAA95E1F7FC01D5
:1026E000E859F548ED83FE838D899E89B3E0880F14
:1026F000991FBA95E1F79C012859354859014B8536
:102700005C854B8B5C8B8F819885881699060CF4C1
:1027100060C2A988BA88A20CB31C8501C501880FC4
:10272000991F880F991FDC01A859B548AD83BE8356
:102730008D859E858A0D9B1D9C01220F331F220FC4
:10274000331FF901E859F548EB83FC832D853E855D
:10275000820F931F880F991F880F991FAC0148594A
:1027600055484A012114310409F0EBC24F89588DB4
:102770004A0D5B1D8F859889480F591F440F551FBF
:10278000440F551F485955484B835C83A12CB12CED
:10279000450103E010E0B401892D880F880B982FC4
:1027A0000E94371B9201A3010E94EC1B20E030E045
:1027B00040E450E40E94941A0E94061B9601A7016F
:1027C0000E94EC19AB81BC816D937D938D939D9399
:1027D000AB83BC83B801812F880F880B982F0E9490
:1027E000371B9201A3010E94EC1B20E030E040EC7B
:1027F00050E40E94941A0E94061B9601A7010E94B1
:10280000EC19EB81FC816087718782879387E9816E
:10281000FA818491EB81FC81EC59FE4F90E0839525
:1028200081708083118212821382E981FA818491FE
:10283000EB81FC81E059FE4F81708083118212820E
:102840001382EB81FC81E453FD4F80829182A2824E
:10285000B382EB81FC81E852FD4F80829182A2829B
:10286000B3820E5F1F4FFFEF8F1A9F0AAF0ABF0A96
:102870000930110509F08FCF0E94F7112CE04F812C
:102880005885249FC001259F900D1124BC016C5FC9
:102890007F4F28E63AE740E050E0641775070CF0F8
:1028A0001BC30596FC01EE0FFF1FEE0FFF1FE8593B
:1028B000F5484081518162817381C41AD50AE60AC4
:1028C000F70AC082D182E282F382E0E3F6E7821562
:1028D00093050CF018C36896CDBFDEBFDF91CF9192
:1028E0001F910F91FF90EF90DF90CF90BF90AF902E
:1028F0009F908F907F906F905F904F903F902F9020
:102900000895F8016591759180E090E00E94351B73
:102910009201A3010E94EC1B20E030EA4CE057E456
:102920000E94941A0E94061B9601A7010E94EC19AE
:10293000F40161937193819391934F01E981FA813D
:102940008491F401EC59FE4F2B813C81280F311DFD
:10295000822F817090E08083118212821382E85965
:10296000FE4F1082118212821382F80165917591D7
:102970006052714D80E00E94351B9201A3010E94BC
:10298000EC1B20E030EA4CE057E40E94941A0E94CD
:10299000061B9601A7010E94EC19D1016D937D934E
:1029A0008D939D931D01E981FA818491FD01EC597C
:1029B000FE4F2B813C81280F311D822F817090E0CA
:1029C0008083118212821382E859FE4F31E03083F6
:1029D000118212821382F801659175916054724AD6
:1029E00080E00E94351B9201A3010E94EC1B20E0B5
:1029F00030EA4CE057E40E94941A0E94061B9601AC
:102A0000A7010E94EC19D5016D937D938D939D9341
:102A10005D01E981FA818491FD01EC59FE4F2B8122
:102A20003C81280F311D822F817080831182128298
:102A30001382E859FE4F32E03083118212821382F2
:102A40000E5F1F4F4B815C814F5F5F4F4B835C83F9
:102A5000ECCDB1E08B1A9108F401EE0FFF1F2B852E
:102A60003C85E20FF31FE98BFA8B6591759140E588
:102A700056E4461B570BBA0180E090E00E94351BDC
:102A80009201A3010E94EC1B20E030EA4CE057E4E5
:102A90000E94941A0E94061B9601A7010E94EC193D
:102AA000AB81BC816D937D938D939D93AB83BC83F0
:102AB000E981FA818491FD01EC59FE4F800F912F3D
:102AC000911D817090E08083118212821382EB81CC
:102AD000FC81E453FD4F1082118212821382E98936
:102AE000FA896591759120E335E7261B370BB9010B
:102AF00080E00E94351B9201A3010E94EC1B20E0A4
:102B000030EA4CE057E40E94941A0E94061B96019A
:102B1000A7010E94EC19AD81BE816D937D938D93C9
:102B20009D93AD83BE83E981FA818491FD01EC59C7
:102B3000FE4F800F912F911D8170A0E0B0E0808347
:102B4000118212821382ED81FE81E453FD4F21E058
:102B50002083118212821382E989FA8985919591E5
:102B6000AD0120E134EA281B390B41095109B901B3
:102B7000CA010E94371B9201A3010E94EC1B20E0B6
:102B800030EA4CE057E40E94941A0E94061B96011A
:102B9000A7010E94EC19D5016D937D938D939D93B0
:102BA0005D01E981FA818491FD01EC59FE4F800FAE
:102BB000912F911D81708083118212821382E859B6
:102BC000FE4F22E020831182128213820F5F1F4F7B
:102BD00069CD09891A89080D191DEB89FC89659150
:102BE0007591605B794B80E090E00E94351B92010B
:102BF000A3010E94EC1B20E030EA4CE057E40E9465
:102C0000941A0E94061B9601A7010E94EC19AB8141
:102C1000BC816D937D938D939D93AB83BC83E98140
:102C2000FA818491FD01EC59FE4F800F912F911D87
:102C30008395817090E08083118212821382EB81F0
:102C4000FC81E453FD4F1082118212821382EB89C2
:102C5000FC8965917591605D7A4880E00E94351B22
:102C60009201A3010E94EC1B20E030EA4CE057E403
:102C70000E94941A0E94061B9601A7010E94EC195B
:102C8000AD81BE816D937D938D939D93AD83BE8306
:102C9000E981FA818491FD01EC59FE4F800F912F5B
:102CA000911D83958170A0E0B0E080831182128233
:102CB0001382ED81FE81E453FD4F21E020831182D8
:102CC00012821382EB89FC8985919591BC01CD011B
:102CD000605F7B458F4F9F4F0E94371B9201A3017E
:102CE0000E94EC1B20E030EA4CE057E40E94941A6A
:102CF0000E94061B9601A7010E94EC19D5016D9355
:102D00007D938D939D935D01E981FA818491FD010D
:102D1000EC59FE4F080F111D0395017000831182BD
:102D200012821382E859FE4F22E020831182128220
:102D300013823FEF831A930A4B895C894E5F5F4F82
:102D4000E0CC51E0251A3108C101880F991FAB85ED
:102D5000BC858A0F9B1F8D879E87FC01859195916D
:102D600020EA3CE840E050E0281B390B41095109BA
:102D7000B901CA010E94371B9201A3010E94EC1BFA
:102D800020E030EA4CE057E40E94941A0E94061BAF
:102D90009601A7010E94EC19AD81BE816D937D93D0
:102DA0008D939D93AD83BE83E981FA818491FD016A
:102DB000EC59FE4F800F912F911D83958170A0E0FB
:102DC000B0E08083118212821382ED81FE81E45390
:102DD000FD4F1082118212821382ED85FE8585914E
:102DE0009591AD0120E83BEB281B390B41095109B6
:102DF000B901CA010E94371B9201A3010E94EC1B7A
:102E000020E030EA4CE057E40E94941A0E94061B2E
:102E10009601A7010E94EC19AB81BC816D937D9353
:102E20008D939D93AB83BC83E981FA818491FD01ED
:102E3000EC59FE4F800F912F911D83958170A0E07A
:102E4000B0E08083118212821382EB81FC81E45313
:102E5000FD4F21E02083118212821382ED85FE85D1
:102E600085919591AD0120E63AEE281B390B410979
:102E70005109B901CA010E94371B9201A3010E94A6
:102E8000EC1B20E030EA4CE057E40E94941A0E94C8
:102E9000061B9601A7010E94EC19D4016D937D9346
:102EA0008D939D934D01E981FA818491FD01EC5947
:102EB000FE4F800F912F911D839581708083118229
:102EC00012821382E859FE4F22E02083118212827F
:102ED00013820F5F1F4F46CC4F5F5F4FF9012C5F8E
:102EE0003F4FD90184809580A680B7804080518073
:102EF0006280738084189508A608B708BE92AE92C7
:102F00009E928E92CACCA985BA854D915D916D91A4
:102F10007D91A987BA8741935193619371938F01F2
:102F20000C591E4FAD014C595E4FDA014D915D9128
:102F30006D917D91D8014D935D936D937D9308596B
:102F40001E4F49855A8544535D4FDA014D915D917D
:102F50006D917D91D8014D935D936D937D93BFEFFE
:102F60002B1A3B0AB4CC0F920FB60F921F9211246A
:102F7000EF92FF920F931F932F933F934F935F9383
:102F80006F937F938F939F93AF93BF93CF93DF9371
:102F9000EF93FF9380910C7490910D740097F1F46E
:102FA000D0910474C0910574609106747091077497
:102FB0002CE0269FA001279F500D11244B5F5F4FEF
:102FC000A0E3B6E7E4E1F4E720E030E0421753077E
:102FD0000CF05EC0D0930474C0930574FC01EE0F36
:102FE000FF1FE853FB48208131812130310509F072
:102FF0007CC0FC01EE0FFF1FE458FA4820813181AC
:103000002130310508F068C021E020934504FC011F
:10301000EE0FFF1FEC5EFB4820813181220F331F32
:10302000220F331F20930C0B30930D0B01968093CE
:103030000C7490930D7440910474509105746CE07D
:10304000649F9001659F300D11242B5F3F4F28171F
:10305000390724F410920C7410920D7481E080935F
:10306000060BFF91EF91DF91CF91BF91AF919F91AF
:103070008F917F916F915F914F913F912F911F9110
:103080000F91FF90EF901F900F900FBE0F9018952B
:10309000ED90FD900D911D91E192F1927F01C2EBB7
:1030A000EC0EF11C8D010C591E4FE80108811981AD
:1030B000E70108831983D4EBED0EF11C8D01045355
:1030C0001D4FE80108811981E701088319832F5FEB
:1030D0003F4FD62FC72F7ACF11F422E096CF223060
:1030E000310509F094CF24E090CF08F090CFFC0197
:1030F000EE0FFF1FE458FA4820813181213031055D
:1031000020F421E02093460482CF11F422E0FACF8C
:103110002230310509F07BCF24E0F4CF1F920F92CB
:103120000FB60F9211240F931F932F933F934F933A
:103130005F936F937F938F939F93AF93BF93EF931F
:10314000FF93CF93DF9300D000D00F92CDB7DEB7BF
:103150008091007490910174A0910274B0910374F5
:1031600089839A83AB83BC8320E030E040EA52E459
:10317000BC01CD010E94E71B87FD58C01092067468
:103180001092077427E137EB41ED59E369817A81A9
:103190008B819C810E94231A609300747093017448
:1031A00080930274909303742AEA31EF42EC5FE358
:1031B0000E94EC1B23E738E641E651E40E94231A03
:1031C0008B018D83998320E030E04AEF52E40E9426
:1031D0008F1A87FD06C000E010E09AEF9D83A2E4FD
:1031E000A9833D8129810093107410931174309349
:1031F00012742093137481E08093160B2596CDBF33
:10320000DEBFDF91CF91FF91EF91BF91AF919F9181
:103210008F917F916F915F914F913F912F911F916E
:103220000F910F900FBE0F901F90189520E030E087
:1032300042E852E469817A818B819C810E94E71B7C
:1032400087FD06C082E080930674109207749ACFBF
:1032500020E030E04CE752E469817A818B819C81E7
:103260000E94E71B87FD02C083E0EDCF20E030E045
:1032700044E352E469817A818B819C810E94E71B3F
:1032800087FD02C084E0DFCF20E030E040E252E47E
:1032900069817A818B819C810E94E71B87FD72CFB7
:1032A00085E0D1CF40910E7450910F7464E774E0C3
:1032B0008AE591E10E948D1288ED90E084BF9093A1
:1032C000610093E184BF9093700024EC39E0209377
:1032D0000C0B30930D0B10920A0B10920B0B90E419
:1032E0009093010B1092040B81E08093050B43E057
:1032F0004093000B20931C0B30931D0B10921A0B64
:1033000010921B0B9093110B1092140B8093150BC2
:103310008093100B87E08093410478948091067429
:103320009091077440910E7450910F7485309105FF
:10333000A9F464E774E08AE591E10E948D1260913E
:1033400010747091117480911274909113740E9492
:10335000061B60930E7470930F74E0CF8430910558
:1033600029F466E773E082E69DE0E7CF83309105BC
:1033700029F468E772E088E69AE0DFCF82309105B1
:1033800029F46AE771E08CE698E0D7CF019729F439
:103390006CE770E08EE697E0D0CF08F0BFCF44E650
:1033A00050E06CE770E08EE697E00E948D12B6CF99
:1033B00097FB072E16F4009407D077FD09D00E94E2
:1033C0000E1A07FC05D03EF4909581959F4F089505
:1033D000709561957F4F0895A1E21A2EAA1BBB1B21
:1033E000FD010DC0AA1FBB1FEE1FFF1FA217B307D1
:1033F000E407F50720F0A21BB30BE40BF50B661FE7
:10340000771F881F991F1A9469F7609570958095AA
:1034100090959B01AC01BD01CF010895AA1BBB1B78
:1034200051E107C0AA1FBB1FA617B70710F0A61BC4
:10343000B70B881F991F5A95A9F780959095BC01E5
:10344000CD0108955058BB27AA270E943A1A0C9420
:10345000AD1B0E949F1B38F00E94A61B20F039F480
:103460009F3F19F426F40C949C1B0EF4E095E7FBA7
:103470000C94961BE92F0E94BE1B58F3BA176207E3
:1034800073078407950720F079F4A6F50C94E01BE8
:103490000EF4E0950B2EBA2FA02D0B01B90190016F
:1034A0000C01CA01A0011124FF27591B99F0593FB3
:1034B00050F4503E68F11A16F040A22F232F342FFB
:1034C0004427585FF3CF469537952795A795F04049
:1034D0005395C9F77EF41F16BA0B620B730B840B5E
:1034E000BAF09150A1F0FF0FBB1F661F771F881F16
:1034F000C2F70EC0BA0F621F731F841F48F487956E
:1035000077956795B795F7959E3F08F0B0CF93955F
:10351000880F08F09927EE0F9795879508950E94D8
:10352000721B08F481E008950E94A81A0C94AD1B48
:103530000E94A61B58F00E949F1B40F029F45F3F99
:1035400029F00C94961B51110C94E11B0C949C1BBC
:103550000E94BE1B68F39923B1F3552391F3951B89
:10356000550BBB27AA2762177307840738F09F5FA4
:103570005F4F220F331F441FAA1FA9F335D00E2E11
:103580003AF0E0E832D091505040E695001CCAF77E
:103590002BD0FE2F29D0660F771F881FBB1F261741
:1035A00037074807AB07B0E809F0BB0B802DBF0118
:1035B000FF2793585F4F3AF09E3F510578F00C94E7
:1035C000961B0C94E11B5F3FE4F3983ED4F3869581
:1035D00077956795B795F7959F5FC9F7880F911D08
:1035E0009695879597F90895E1E0660F771F881FF4
:1035F000BB1F621773078407BA0720F0621B730BA7
:10360000840BBA0BEE1F88F7E09508950E94C61B45
:1036100088F09F5798F0B92F9927B751B0F0E1F093
:10362000660F771F881F991F1AF0BA95C9F714C043
:10363000B13091F00E94E01BB1E008950C94E01BC2
:10364000672F782F8827B85F39F0B93FCCF386957C
:1036500077956795B395D9F73EF4909580957095D9
:1036600061957F4F8F4F9F4F0895E89409C097FB56
:103670003EF490958095709561957F4F8F4F9F4F49
:103680009923A9F0F92F96E9BB279395F69587958D
:1036900077956795B795F111F8CFFAF4BB0F11F450
:1036A00060FF1BC06F5F7F4F8F4F9F4F16C08823F7
:1036B00011F096E911C0772321F09EE8872F762F2D
:1036C00005C0662371F096E8862F70E060E02AF06E
:1036D0009A95660F771F881FDAF7880F969587955A
:1036E00097F90895990F0008550FAA0BE0E8FEEF2F
:1036F00016161706E807F907C0F012161306E407B6
:10370000F50798F0621B730B840B950B39F40A26AE
:1037100061F0232B242B252B21F408950A2609F48C
:10372000A140A6958FEF811D811D089597F99F6790
:1037300080E870E060E008959FEF80EC0895002439
:103740000A941616170618060906089500240A9406
:1037500012161306140605060895092E0394000C8C
:1037600011F4882352F0BB0F40F4BF2B11F460FF1B
:1037700004C06F5F7F4F8F4F9F4F089557FD905844
:10378000440F551F59F05F3F71F04795880F97FB25
:10379000991F61F09F3F79F08795089512161306DF
:1037A0001406551FF2CF4695F1DF08C0161617060E
:1037B0001806991FF1CF8695710561050894089543
:1037C000E894BB2766277727CB0197F908950E94D5
:1037D000721B08F48FEF08950E94FF1B0C94AD1B21
:1037E0000E949F1B38F00E94A61B20F0952311F029
:1037F0000C94961B0C949C1B11240C94E11B0E94AE
:10380000BE1B70F3959FC1F3950F50E0551F629F4B
:10381000F001729FBB27F00DB11D639FAA27F00D29
:10382000B11DAA1F649F6627B00DA11D661F829F50
:103830002227B00DA11D621F739FB00DA11D621F35
:10384000839FA00D611D221F749F3327A00D611D52
:10385000231F849F600D211D822F762F6A2F112434
:103860009F5750409AF0F1F088234AF0EE0FFF1F67
:10387000BB1F661F771F881F91505040A9F79E3FBE
:10388000510580F00C94961B0C94E11B5F3FE4F310
:10389000983ED4F3869577956795B795F795E79514
:1038A0009F5FC1F7FE2B880F911D9695879597F91D
:0638B0000895F894FFCF1B
:0838B60000002242050005009C
:00000001FF
